{
  "contractName": "Tracker",
  "abi": [
    {
      "anonymous": false,
      "inputs": [
        {
          "indexed": false,
          "internalType": "address",
          "name": "",
          "type": "address"
        }
      ],
      "name": "add",
      "type": "event"
    },
    {
      "anonymous": false,
      "inputs": [
        {
          "components": [
            {
              "internalType": "string",
              "name": "party",
              "type": "string"
            },
            {
              "internalType": "string",
              "name": "supervisorName",
              "type": "string"
            },
            {
              "internalType": "string",
              "name": "productName",
              "type": "string"
            },
            {
              "internalType": "address",
              "name": "callerAddress",
              "type": "address"
            },
            {
              "internalType": "uint256",
              "name": "productID",
              "type": "uint256"
            },
            {
              "internalType": "uint256",
              "name": "quantity",
              "type": "uint256"
            },
            {
              "internalType": "string",
              "name": "date",
              "type": "string"
            },
            {
              "internalType": "uint256",
              "name": "price",
              "type": "uint256"
            }
          ],
          "indexed": false,
          "internalType": "struct Tracker.productDetails",
          "name": "",
          "type": "tuple"
        }
      ],
      "name": "details",
      "type": "event"
    },
    {
      "anonymous": false,
      "inputs": [
        {
          "indexed": false,
          "internalType": "string",
          "name": "",
          "type": "string"
        }
      ],
      "name": "dte",
      "type": "event"
    },
    {
      "anonymous": false,
      "inputs": [
        {
          "indexed": false,
          "internalType": "string",
          "name": "",
          "type": "string"
        }
      ],
      "name": "par",
      "type": "event"
    },
    {
      "anonymous": false,
      "inputs": [
        {
          "indexed": false,
          "internalType": "uint256",
          "name": "",
          "type": "uint256"
        }
      ],
      "name": "pri",
      "type": "event"
    },
    {
      "anonymous": false,
      "inputs": [
        {
          "indexed": false,
          "internalType": "uint256",
          "name": "",
          "type": "uint256"
        }
      ],
      "name": "prodID",
      "type": "event"
    },
    {
      "anonymous": false,
      "inputs": [
        {
          "indexed": false,
          "internalType": "string",
          "name": "",
          "type": "string"
        }
      ],
      "name": "prodName",
      "type": "event"
    },
    {
      "anonymous": false,
      "inputs": [
        {
          "indexed": false,
          "internalType": "uint256",
          "name": "",
          "type": "uint256"
        }
      ],
      "name": "quan",
      "type": "event"
    },
    {
      "anonymous": false,
      "inputs": [
        {
          "indexed": false,
          "internalType": "string",
          "name": "",
          "type": "string"
        }
      ],
      "name": "supName",
      "type": "event"
    },
    {
      "inputs": [
        {
          "internalType": "string",
          "name": "_party",
          "type": "string"
        },
        {
          "internalType": "string",
          "name": "_supervisorName",
          "type": "string"
        },
        {
          "internalType": "string",
          "name": "_productName",
          "type": "string"
        },
        {
          "internalType": "uint256",
          "name": "_productID",
          "type": "uint256"
        },
        {
          "internalType": "uint256",
          "name": "_quantity",
          "type": "uint256"
        },
        {
          "internalType": "string",
          "name": "_date",
          "type": "string"
        },
        {
          "internalType": "uint256",
          "name": "_price",
          "type": "uint256"
        }
      ],
      "name": "submitData",
      "outputs": [
        {
          "internalType": "bool",
          "name": "",
          "type": "bool"
        }
      ],
      "stateMutability": "nonpayable",
      "type": "function"
    },
    {
      "inputs": [
        {
          "internalType": "uint256",
          "name": "_productID",
          "type": "uint256"
        }
      ],
      "name": "getData",
      "outputs": [
        {
          "components": [
            {
              "internalType": "string",
              "name": "party",
              "type": "string"
            },
            {
              "internalType": "string",
              "name": "supervisorName",
              "type": "string"
            },
            {
              "internalType": "string",
              "name": "productName",
              "type": "string"
            },
            {
              "internalType": "address",
              "name": "callerAddress",
              "type": "address"
            },
            {
              "internalType": "uint256",
              "name": "productID",
              "type": "uint256"
            },
            {
              "internalType": "uint256",
              "name": "quantity",
              "type": "uint256"
            },
            {
              "internalType": "string",
              "name": "date",
              "type": "string"
            },
            {
              "internalType": "uint256",
              "name": "price",
              "type": "uint256"
            }
          ],
          "internalType": "struct Tracker.productDetails",
          "name": "",
          "type": "tuple"
        }
      ],
      "stateMutability": "nonpayable",
      "type": "function"
    }
  ],
  "bytecode": "0x608060405234801561001057600080fd5b50611212806100206000396000f3fe608060405234801561001057600080fd5b50600436106100365760003560e01c80630178fe3f1461003b5780639b2508431461006b575b600080fd5b610055600480360381019061005091906109e9565b61009b565b6040516100629190610bc4565b60405180910390f35b61008560048036038101906100809190610d1b565b6106bd565b6040516100929190610e48565b60405180910390f35b6100a36108a1565b7f580f51ae1e2b517935753f20bcb3858b02547abe3707a48f3a3b8ddf84b0cae36000808481526020019081526020016000206040516100e391906110b3565b60405180910390a17f7aee3264713bb8803b32a95ecf22af69ce57c0865ac3b9bc4704b2ce5f479c6960008084815260200190815260200160002060000160405161012e9190611166565b60405180910390a17f321d5c396e6fa7258701d8370d42c784cd8afa4e2a1e2fa128f846b4b2bcffb06000808481526020019081526020016000206001016040516101799190611166565b60405180910390a17fa293b5641b14931b4f80925e5f376ae61104a5064e7bee1567cf24067f29f0716000808481526020019081526020016000206002016040516101c49190611166565b60405180910390a17f0a3b0a4f4c6e53dce3dbcad5614cb2ba3a0fa7326d03c5d64b4fa2d56549273760008084815260200190815260200160002060030160009054906101000a900473ffffffffffffffffffffffffffffffffffffffff166040516102309190611197565b60405180910390a17f8098031d8244380067a0db6b4d6e6e29cc9569d074dc87d4b8ec4a2ceecf33ab6000808481526020019081526020016000206004015460405161027c91906111c1565b60405180910390a17fe66f95336239b8a9a03c829d6f8da7fd254a0ca08e4d14e8ed0d4bb8200c5699600080848152602001908152602001600020600501546040516102c891906111c1565b60405180910390a17f556e07c35645b8cd317d5b5d1e6845a22d11bcbd74f4fb6fa5562f421f7772086000808481526020019081526020016000206006016040516103139190611166565b60405180910390a17f7fe354ca0920a5812dde805abb082da763d882ca54799c82f3dd1fe37d042aeb6000808481526020019081526020016000206007015460405161035f91906111c1565b60405180910390a16103db60008084815260200190815260200160002060030160009054906101000a900473ffffffffffffffffffffffffffffffffffffffff166040518060400160405280600e81526020017f4576657265797468696e67204f4b000000000000000000000000000000000000815250610841565b506000808381526020019081526020016000206040518061010001604052908160008201805461040a90610e92565b80601f016020809104026020016040519081016040528092919081815260200182805461043690610e92565b80156104835780601f1061045857610100808354040283529160200191610483565b820191906000526020600020905b81548152906001019060200180831161046657829003601f168201915b5050505050815260200160018201805461049c90610e92565b80601f01602080910402602001604051908101604052809291908181526020018280546104c890610e92565b80156105155780601f106104ea57610100808354040283529160200191610515565b820191906000526020600020905b8154815290600101906020018083116104f857829003601f168201915b5050505050815260200160028201805461052e90610e92565b80601f016020809104026020016040519081016040528092919081815260200182805461055a90610e92565b80156105a75780601f1061057c576101008083540402835291602001916105a7565b820191906000526020600020905b81548152906001019060200180831161058a57829003601f168201915b505050505081526020016003820160009054906101000a900473ffffffffffffffffffffffffffffffffffffffff1673ffffffffffffffffffffffffffffffffffffffff1673ffffffffffffffffffffffffffffffffffffffff168152602001600482015481526020016005820154815260200160068201805461062a90610e92565b80601f016020809104026020016040519081016040528092919081815260200182805461065690610e92565b80156106a35780601f10610678576101008083540402835291602001916106a3565b820191906000526020600020905b81548152906001019060200180831161068657829003601f168201915b505050505081526020016007820154815250509050919050565b60008760008087815260200190815260200160002060000190805190602001906106e89291906108fc565b508660008087815260200190815260200160002060010190805190602001906107129291906108fc565b5085600080878152602001908152602001600020600201908051906020019061073c9291906108fc565b503360008087815260200190815260200160002060030160006101000a81548173ffffffffffffffffffffffffffffffffffffffff021916908373ffffffffffffffffffffffffffffffffffffffff160217905550846000808781526020019081526020016000206004018190555083600080878152602001908152602001600020600501819055508260008087815260200190815260200160002060060190805190602001906107ee9291906108fc565b508160008087815260200190815260200160002060070181905550600285908060018154018082558091505060019003906000526020600020016000909190919091505560019050979650505050505050565b600081600160008573ffffffffffffffffffffffffffffffffffffffff1673ffffffffffffffffffffffffffffffffffffffff16815260200190815260200160002090805190602001906108969291906108fc565b506001905092915050565b604051806101000160405280606081526020016060815260200160608152602001600073ffffffffffffffffffffffffffffffffffffffff168152602001600081526020016000815260200160608152602001600081525090565b82805461090890610e92565b90600052602060002090601f01602090048101928261092a5760008555610971565b82601f1061094357805160ff1916838001178555610971565b82800160010185558215610971579182015b82811115610970578251825591602001919060010190610955565b5b50905061097e9190610982565b5090565b5b8082111561099b576000816000905550600101610983565b5090565b6000604051905090565b600080fd5b600080fd5b6000819050919050565b6109c6816109b3565b81146109d157600080fd5b50565b6000813590506109e3816109bd565b92915050565b6000602082840312156109ff576109fe6109a9565b5b6000610a0d848285016109d4565b91505092915050565b600081519050919050565b600082825260208201905092915050565b60005b83811015610a50578082015181840152602081019050610a35565b83811115610a5f576000848401525b50505050565b6000601f19601f8301169050919050565b6000610a8182610a16565b610a8b8185610a21565b9350610a9b818560208601610a32565b610aa481610a65565b840191505092915050565b600073ffffffffffffffffffffffffffffffffffffffff82169050919050565b6000610ada82610aaf565b9050919050565b610aea81610acf565b82525050565b610af9816109b3565b82525050565b6000610100830160008301518482036000860152610b1d8282610a76565b91505060208301518482036020860152610b378282610a76565b91505060408301518482036040860152610b518282610a76565b9150506060830151610b666060860182610ae1565b506080830151610b796080860182610af0565b5060a0830151610b8c60a0860182610af0565b5060c083015184820360c0860152610ba48282610a76565b91505060e0830151610bb960e0860182610af0565b508091505092915050565b60006020820190508181036000830152610bde8184610aff565b905092915050565b600080fd5b600080fd5b7f4e487b7100000000000000000000000000000000000000000000000000000000600052604160045260246000fd5b610c2882610a65565b810181811067ffffffffffffffff82111715610c4757610c46610bf0565b5b80604052505050565b6000610c5a61099f565b9050610c668282610c1f565b919050565b600067ffffffffffffffff821115610c8657610c85610bf0565b5b610c8f82610a65565b9050602081019050919050565b82818337600083830152505050565b6000610cbe610cb984610c6b565b610c50565b905082815260208101848484011115610cda57610cd9610beb565b5b610ce5848285610c9c565b509392505050565b600082601f830112610d0257610d01610be6565b5b8135610d12848260208601610cab565b91505092915050565b600080600080600080600060e0888a031215610d3a57610d396109a9565b5b600088013567ffffffffffffffff811115610d5857610d576109ae565b5b610d648a828b01610ced565b975050602088013567ffffffffffffffff811115610d8557610d846109ae565b5b610d918a828b01610ced565b965050604088013567ffffffffffffffff811115610db257610db16109ae565b5b610dbe8a828b01610ced565b9550506060610dcf8a828b016109d4565b9450506080610de08a828b016109d4565b93505060a088013567ffffffffffffffff811115610e0157610e006109ae565b5b610e0d8a828b01610ced565b92505060c0610e1e8a828b016109d4565b91505092959891949750929550565b60008115159050919050565b610e4281610e2d565b82525050565b6000602082019050610e5d6000830184610e39565b92915050565b7f4e487b7100000000000000000000000000000000000000000000000000000000600052602260045260246000fd5b60006002820490506001821680610eaa57607f821691505b60208210811415610ebe57610ebd610e63565b5b50919050565b60008190508160005260206000209050919050565b60008154610ee681610e92565b610ef08186610a21565b94506001821660008114610f0b5760018114610f1d57610f50565b60ff1983168652602086019350610f50565b610f2685610ec4565b60005b83811015610f4857815481890152600182019150602081019050610f29565b808801955050505b50505092915050565b60008160001c9050919050565b600073ffffffffffffffffffffffffffffffffffffffff82169050919050565b6000610f99610f9483610f59565b610f66565b9050919050565b6000819050919050565b6000610fbd610fb883610f59565b610fa0565b9050919050565b6000610100830160008084018583036000870152610fe28382610ed9565b925050600184018583036020870152610ffb8382610ed9565b9250506002840185830360408701526110148382610ed9565b9250506003840154905061102781610f86565b6110346060870182610ae1565b506004840154905061104581610faa565b6110526080870182610af0565b506005840154905061106381610faa565b61107060a0870182610af0565b506006840185830360c08701526110878382610ed9565b9250506007840154905061109a81610faa565b6110a760e0870182610af0565b50819250505092915050565b600060208201905081810360008301526110cd8184610fc4565b905092915050565b600082825260208201905092915050565b600081546110f381610e92565b6110fd81866110d5565b94506001821660008114611118576001811461112a5761115d565b60ff198316865260208601935061115d565b61113385610ec4565b60005b8381101561115557815481890152600182019150602081019050611136565b808801955050505b50505092915050565b6000602082019050818103600083015261118081846110e6565b905092915050565b61119181610acf565b82525050565b60006020820190506111ac6000830184611188565b92915050565b6111bb816109b3565b82525050565b60006020820190506111d660008301846111b2565b9291505056fea2646970667358221220a185bebe2063f97d181b0dbc3e5d69e460246e0c161bc4191ade1fa7f1871c2864736f6c634300080b0033",
  "immutableReferences": {},
  "source": "pragma solidity ^0.8.0;\r\n\r\ncontract Tracker{\r\n\r\n    struct productDetails{\r\n        string party;\r\n        string supervisorName;\r\n        string productName;\r\n        address callerAddress;\r\n        uint productID;\r\n        uint quantity;\r\n        string date;\r\n        uint price;\r\n    }\r\n\r\n    mapping (uint => productDetails) pd;\r\n    mapping (address => string) message;\r\n    event details(productDetails);\r\n    event par(string);\r\n    event supName(string);\r\n    event prodName(string);\r\n    event add(address);\r\n    event prodID(uint);\r\n    event quan(uint);\r\n    event dte(string);\r\n    event pri(uint);\r\n    uint[] IDs;\r\n\r\n    function submitData(string memory _party, string memory _supervisorName, string memory _productName, uint _productID, uint _quantity, string memory _date, uint _price) public returns(bool) {\r\n        pd[_productID].party = _party;\r\n        pd[_productID].supervisorName = _supervisorName;\r\n        pd[_productID].productName = _productName;\r\n        pd[_productID].callerAddress = msg.sender; // adress of caller\r\n        pd[_productID].productID = _productID;\r\n        pd[_productID].quantity = _quantity;\r\n        pd[_productID].date = _date;\r\n        pd[_productID].price = _price;\r\n        IDs.push(_productID); // array for storing all the product id's \r\n        return true;\r\n    }\r\n\r\n    function getData(uint _productID) public returns(productDetails memory){   //fetch product details\r\n        emit details(pd[_productID]);\r\n        emit par(pd[_productID].party);       // emit is use for getting the data in backend\r\n        emit supName(pd[_productID].supervisorName);\r\n        emit prodName(pd[_productID].productName);\r\n        emit add(pd[_productID].callerAddress);\r\n        emit prodID(pd[_productID].productID);       // emit is use for getting the data in backend\r\n        emit quan(pd[_productID].quantity);\r\n        emit dte(pd[_productID].date);\r\n        emit pri(pd[_productID].price);\r\n        statusMsg(pd[_productID].callerAddress, \"Evereything OK\");      // save this acknowlodgement to the caller adress\r\n        return pd[_productID];\r\n    }\r\n\r\n    function statusMsg(address _callerAddress, string memory m) internal returns(bool){\r\n        message[_callerAddress] = m;        // store the acknowledgement msg into the caller adress\r\n        return true;\r\n    }\r\n\r\n    /* function getAllProducts() public returns(productDetails memory){\r\n        for(uint i=0;i<IDs.length;i++){\r\n            uint id = IDs[i];\r\n            return (pd[id]); \r\n        }\r\n    } */\r\n    /* struct getData{\r\n        returnDetails(\r\n            string[] party= _party;\r\n            string [] supervisorName=_supervisorName;\r\n            string [] productName= _productName;\r\n            uint productID= _productID;\r\n            uint quantity= _quantity;\r\n            string[] date= _date;\r\n            uint[] price= _price;\r\n        )\r\n        mapping (uint => _productID) pID;\r\n    } */\r\n}",
  "sourcePath": "C:\\Users\\Manoj\\Desktop\\SupplyChain\\contracts\\Tracker.sol",
  "compiler": {
    "name": "solc",
    "version": "0.8.11+commit.d7f03943.Emscripten.clang"
  },
  "schemaVersion": "3.4.4",
  "updatedAt": "2022-06-13T17:53:59.866Z",
  "networkType": "ethereum",
  "devdoc": {
    "kind": "dev",
    "methods": {},
    "version": 1
  },
  "userdoc": {
    "kind": "user",
    "methods": {},
    "version": 1
  }
}